{
  "_format": "hh-sol-artifact-1",
  "contractName": "NFTFactory",
  "sourceName": "contracts/NFTFactory.sol",
  "abi": [
    {
      "inputs": [
        {
          "internalType": "string",
          "name": "_tokenURI",
          "type": "string"
        }
      ],
      "stateMutability": "nonpayable",
      "type": "constructor"
    },
    {
      "anonymous": false,
      "inputs": [
        {
          "indexed": true,
          "internalType": "address",
          "name": "account",
          "type": "address"
        },
        {
          "indexed": true,
          "internalType": "address",
          "name": "operator",
          "type": "address"
        },
        {
          "indexed": false,
          "internalType": "bool",
          "name": "approved",
          "type": "bool"
        }
      ],
      "name": "ApprovalForAll",
      "type": "event"
    },
    {
      "anonymous": false,
      "inputs": [
        {
          "indexed": true,
          "internalType": "address",
          "name": "operator",
          "type": "address"
        },
        {
          "indexed": true,
          "internalType": "address",
          "name": "from",
          "type": "address"
        },
        {
          "indexed": true,
          "internalType": "address",
          "name": "to",
          "type": "address"
        },
        {
          "indexed": false,
          "internalType": "uint256[]",
          "name": "ids",
          "type": "uint256[]"
        },
        {
          "indexed": false,
          "internalType": "uint256[]",
          "name": "values",
          "type": "uint256[]"
        }
      ],
      "name": "TransferBatch",
      "type": "event"
    },
    {
      "anonymous": false,
      "inputs": [
        {
          "indexed": true,
          "internalType": "address",
          "name": "operator",
          "type": "address"
        },
        {
          "indexed": true,
          "internalType": "address",
          "name": "from",
          "type": "address"
        },
        {
          "indexed": true,
          "internalType": "address",
          "name": "to",
          "type": "address"
        },
        {
          "indexed": false,
          "internalType": "uint256",
          "name": "id",
          "type": "uint256"
        },
        {
          "indexed": false,
          "internalType": "uint256",
          "name": "value",
          "type": "uint256"
        }
      ],
      "name": "TransferSingle",
      "type": "event"
    },
    {
      "anonymous": false,
      "inputs": [
        {
          "indexed": false,
          "internalType": "string",
          "name": "value",
          "type": "string"
        },
        {
          "indexed": true,
          "internalType": "uint256",
          "name": "id",
          "type": "uint256"
        }
      ],
      "name": "URI",
      "type": "event"
    },
    {
      "inputs": [
        {
          "internalType": "address",
          "name": "account",
          "type": "address"
        },
        {
          "internalType": "uint256",
          "name": "id",
          "type": "uint256"
        }
      ],
      "name": "balanceOf",
      "outputs": [
        {
          "internalType": "uint256",
          "name": "",
          "type": "uint256"
        }
      ],
      "stateMutability": "view",
      "type": "function"
    },
    {
      "inputs": [
        {
          "internalType": "address[]",
          "name": "accounts",
          "type": "address[]"
        },
        {
          "internalType": "uint256[]",
          "name": "ids",
          "type": "uint256[]"
        }
      ],
      "name": "balanceOfBatch",
      "outputs": [
        {
          "internalType": "uint256[]",
          "name": "",
          "type": "uint256[]"
        }
      ],
      "stateMutability": "view",
      "type": "function"
    },
    {
      "inputs": [],
      "name": "createNFT",
      "outputs": [],
      "stateMutability": "nonpayable",
      "type": "function"
    },
    {
      "inputs": [
        {
          "internalType": "address",
          "name": "account",
          "type": "address"
        },
        {
          "internalType": "address",
          "name": "operator",
          "type": "address"
        }
      ],
      "name": "isApprovedForAll",
      "outputs": [
        {
          "internalType": "bool",
          "name": "",
          "type": "bool"
        }
      ],
      "stateMutability": "view",
      "type": "function"
    },
    {
      "inputs": [
        {
          "internalType": "address",
          "name": "from",
          "type": "address"
        },
        {
          "internalType": "address",
          "name": "to",
          "type": "address"
        },
        {
          "internalType": "uint256[]",
          "name": "ids",
          "type": "uint256[]"
        },
        {
          "internalType": "uint256[]",
          "name": "amounts",
          "type": "uint256[]"
        },
        {
          "internalType": "bytes",
          "name": "data",
          "type": "bytes"
        }
      ],
      "name": "safeBatchTransferFrom",
      "outputs": [],
      "stateMutability": "nonpayable",
      "type": "function"
    },
    {
      "inputs": [
        {
          "internalType": "address",
          "name": "from",
          "type": "address"
        },
        {
          "internalType": "address",
          "name": "to",
          "type": "address"
        },
        {
          "internalType": "uint256",
          "name": "id",
          "type": "uint256"
        },
        {
          "internalType": "uint256",
          "name": "amount",
          "type": "uint256"
        },
        {
          "internalType": "bytes",
          "name": "data",
          "type": "bytes"
        }
      ],
      "name": "safeTransferFrom",
      "outputs": [],
      "stateMutability": "nonpayable",
      "type": "function"
    },
    {
      "inputs": [
        {
          "internalType": "address",
          "name": "operator",
          "type": "address"
        },
        {
          "internalType": "bool",
          "name": "approved",
          "type": "bool"
        }
      ],
      "name": "setApprovalForAll",
      "outputs": [],
      "stateMutability": "nonpayable",
      "type": "function"
    },
    {
      "inputs": [
        {
          "internalType": "bytes4",
          "name": "interfaceId",
          "type": "bytes4"
        }
      ],
      "name": "supportsInterface",
      "outputs": [
        {
          "internalType": "bool",
          "name": "",
          "type": "bool"
        }
      ],
      "stateMutability": "view",
      "type": "function"
    },
    {
      "inputs": [],
      "name": "tokenCounter",
      "outputs": [
        {
          "internalType": "uint256",
          "name": "",
          "type": "uint256"
        }
      ],
      "stateMutability": "view",
      "type": "function"
    },
    {
      "inputs": [
        {
          "internalType": "uint256",
          "name": "_tokenID",
          "type": "uint256"
        }
      ],
      "name": "uri",
      "outputs": [
        {
          "internalType": "string",
          "name": "",
          "type": "string"
        }
      ],
      "stateMutability": "view",
      "type": "function"
    }
  ],
  "bytecode": "0x60806040523480156200001157600080fd5b5060405162003039380380620030398339818101604052810190620000379190620001bc565b8062000049816200007260201b60201c565b508060049080519060200190620000629291906200008e565b5060006003819055505062000391565b80600290805190602001906200008a9291906200008e565b5050565b8280546200009c90620002a2565b90600052602060002090601f016020900481019282620000c057600085556200010c565b82601f10620000db57805160ff19168380011785556200010c565b828001600101855582156200010c579182015b828111156200010b578251825591602001919060010190620000ee565b5b5090506200011b91906200011f565b5090565b5b808211156200013a57600081600090555060010162000120565b5090565b6000620001556200014f8462000236565b6200020d565b90508281526020810184848401111562000174576200017362000371565b5b620001818482856200026c565b509392505050565b600082601f830112620001a157620001a06200036c565b5b8151620001b38482602086016200013e565b91505092915050565b600060208284031215620001d557620001d46200037b565b5b600082015167ffffffffffffffff811115620001f657620001f562000376565b5b620002048482850162000189565b91505092915050565b6000620002196200022c565b9050620002278282620002d8565b919050565b6000604051905090565b600067ffffffffffffffff8211156200025457620002536200033d565b5b6200025f8262000380565b9050602081019050919050565b60005b838110156200028c5780820151818401526020810190506200026f565b838111156200029c576000848401525b50505050565b60006002820490506001821680620002bb57607f821691505b60208210811415620002d257620002d16200030e565b5b50919050565b620002e38262000380565b810181811067ffffffffffffffff821117156200030557620003046200033d565b5b80604052505050565b7f4e487b7100000000000000000000000000000000000000000000000000000000600052602260045260246000fd5b7f4e487b7100000000000000000000000000000000000000000000000000000000600052604160045260246000fd5b600080fd5b600080fd5b600080fd5b600080fd5b6000601f19601f8301169050919050565b612c9880620003a16000396000f3fe608060405234801561001057600080fd5b506004361061009d5760003560e01c80638a97ec2a116100665780638a97ec2a1461017e578063a22cb46514610188578063d082e381146101a4578063e985e9c5146101c2578063f242432a146101f25761009d565b8062fdd58e146100a257806301ffc9a7146100d25780630e89341c146101025780632eb2c2d6146101325780634e1273f41461014e575b600080fd5b6100bc60048036038101906100b79190611ad8565b61020e565b6040516100c991906122a4565b60405180910390f35b6100ec60048036038101906100e79190611b90565b6102d7565b6040516100f99190612107565b60405180910390f35b61011c60048036038101906101179190611bea565b6103b9565b6040516101299190612122565b60405180910390f35b61014c60048036038101906101479190611932565b6103ed565b005b61016860048036038101906101639190611b18565b61048e565b60405161017591906120ae565b60405180910390f35b6101866105a7565b005b6101a2600480360381019061019d9190611a98565b6105eb565b005b6101ac610601565b6040516101b991906122a4565b60405180910390f35b6101dc60048036038101906101d791906118f2565b610607565b6040516101e99190612107565b60405180910390f35b61020c60048036038101906102079190611a01565b61069b565b005b60008073ffffffffffffffffffffffffffffffffffffffff168373ffffffffffffffffffffffffffffffffffffffff16141561027f576040517f08c379a000000000000000000000000000000000000000000000000000000000815260040161027690612184565b60405180910390fd5b60008083815260200190815260200160002060008473ffffffffffffffffffffffffffffffffffffffff1673ffffffffffffffffffffffffffffffffffffffff16815260200190815260200160002054905092915050565b60007fd9b67a26000000000000000000000000000000000000000000000000000000007bffffffffffffffffffffffffffffffffffffffffffffffffffffffff1916827bffffffffffffffffffffffffffffffffffffffffffffffffffffffff191614806103a257507f0e89341c000000000000000000000000000000000000000000000000000000007bffffffffffffffffffffffffffffffffffffffffffffffffffffffff1916827bffffffffffffffffffffffffffffffffffffffffffffffffffffffff1916145b806103b257506103b18261073c565b5b9050919050565b606060046103c6836107a6565b6040516020016103d7929190611fb2565b6040516020818303038152906040529050919050565b6103f5610907565b73ffffffffffffffffffffffffffffffffffffffff168573ffffffffffffffffffffffffffffffffffffffff16148061043b575061043a85610435610907565b610607565b5b61047a576040517f08c379a0000000000000000000000000000000000000000000000000000000008152600401610471906121e4565b60405180910390fd5b610487858585858561090f565b5050505050565b606081518351146104d4576040517f08c379a00000000000000000000000000000000000000000000000000000000081526004016104cb90612244565b60405180910390fd5b6000835167ffffffffffffffff8111156104f1576104f0612731565b5b60405190808252806020026020018201604052801561051f5781602001602082028036833780820191505090505b50905060005b845181101561059c5761056c85828151811061054457610543612702565b5b602002602001015185838151811061055f5761055e612702565b5b602002602001015161020e565b82828151811061057f5761057e612702565b5b60200260200101818152505080610595906125fb565b9050610525565b508091505092915050565b600060035490506105ca3382600160405180602001604052806000815250610c23565b60016003546105d99190612427565b6003819055506105e881610db9565b50565b6105fd6105f6610907565b8383610e52565b5050565b60035481565b6000600160008473ffffffffffffffffffffffffffffffffffffffff1673ffffffffffffffffffffffffffffffffffffffff16815260200190815260200160002060008373ffffffffffffffffffffffffffffffffffffffff1673ffffffffffffffffffffffffffffffffffffffff16815260200190815260200160002060009054906101000a900460ff16905092915050565b6106a3610907565b73ffffffffffffffffffffffffffffffffffffffff168573ffffffffffffffffffffffffffffffffffffffff1614806106e957506106e8856106e3610907565b610607565b5b610728576040517f08c379a000000000000000000000000000000000000000000000000000000000815260040161071f906121a4565b60405180910390fd5b6107358585858585610fbf565b5050505050565b60007f01ffc9a7000000000000000000000000000000000000000000000000000000007bffffffffffffffffffffffffffffffffffffffffffffffffffffffff1916827bffffffffffffffffffffffffffffffffffffffffffffffffffffffff1916149050919050565b606060008214156107ee576040518060400160405280600181526020017f30000000000000000000000000000000000000000000000000000000000000008152509050610902565b600082905060005b60008214610820578080610809906125fb565b915050600a82610819919061247d565b91506107f6565b60008167ffffffffffffffff81111561083c5761083b612731565b5b6040519080825280601f01601f19166020018201604052801561086e5781602001600182028036833780820191505090505b5090505b600085146108fb5760018261088791906124ae565b9150600a856108969190612644565b60306108a29190612427565b60f81b8183815181106108b8576108b7612702565b5b60200101907effffffffffffffffffffffffffffffffffffffffffffffffffffffffffffff1916908160001a905350600a856108f4919061247d565b9450610872565b8093505050505b919050565b600033905090565b8151835114610953576040517f08c379a000000000000000000000000000000000000000000000000000000000815260040161094a90612264565b60405180910390fd5b600073ffffffffffffffffffffffffffffffffffffffff168473ffffffffffffffffffffffffffffffffffffffff1614156109c3576040517f08c379a00000000000000000000000000000000000000000000000000000000081526004016109ba906121c4565b60405180910390fd5b60006109cd610907565b90506109dd818787878787611241565b60005b8451811015610b8e5760008582815181106109fe576109fd612702565b5b602002602001015190506000858381518110610a1d57610a1c612702565b5b60200260200101519050600080600084815260200190815260200160002060008b73ffffffffffffffffffffffffffffffffffffffff1673ffffffffffffffffffffffffffffffffffffffff16815260200190815260200160002054905081811015610abe576040517f08c379a0000000000000000000000000000000000000000000000000000000008152600401610ab590612204565b60405180910390fd5b81810360008085815260200190815260200160002060008c73ffffffffffffffffffffffffffffffffffffffff1673ffffffffffffffffffffffffffffffffffffffff168152602001908152602001600020819055508160008085815260200190815260200160002060008b73ffffffffffffffffffffffffffffffffffffffff1673ffffffffffffffffffffffffffffffffffffffff1681526020019081526020016000206000828254610b739190612427565b9250508190555050505080610b87906125fb565b90506109e0565b508473ffffffffffffffffffffffffffffffffffffffff168673ffffffffffffffffffffffffffffffffffffffff168273ffffffffffffffffffffffffffffffffffffffff167f4a39dc06d4c0dbc64b70af90fd698a233a518aa5d07e595d983b8c0526c8f7fb8787604051610c059291906120d0565b60405180910390a4610c1b818787878787611249565b505050505050565b600073ffffffffffffffffffffffffffffffffffffffff168473ffffffffffffffffffffffffffffffffffffffff161415610c93576040517f08c379a0000000000000000000000000000000000000000000000000000000008152600401610c8a90612284565b60405180910390fd5b6000610c9d610907565b9050610cbe81600087610caf88611430565b610cb888611430565b87611241565b8260008086815260200190815260200160002060008773ffffffffffffffffffffffffffffffffffffffff1673ffffffffffffffffffffffffffffffffffffffff1681526020019081526020016000206000828254610d1d9190612427565b925050819055508473ffffffffffffffffffffffffffffffffffffffff16600073ffffffffffffffffffffffffffffffffffffffff168273ffffffffffffffffffffffffffffffffffffffff167fc3d58168c5ae7397731d063d5bbf3d657854427343f4c083240f7aacaa2d0f628787604051610d9b9291906122bf565b60405180910390a4610db2816000878787876114aa565b5050505050565b610e4f81604051602401610dcd91906122a4565b6040516020818303038152906040527ff5b1bba9000000000000000000000000000000000000000000000000000000007bffffffffffffffffffffffffffffffffffffffffffffffffffffffff19166020820180517bffffffffffffffffffffffffffffffffffffffffffffffffffffffff8381831617835250505050611691565b50565b8173ffffffffffffffffffffffffffffffffffffffff168373ffffffffffffffffffffffffffffffffffffffff161415610ec1576040517f08c379a0000000000000000000000000000000000000000000000000000000008152600401610eb890612224565b60405180910390fd5b80600160008573ffffffffffffffffffffffffffffffffffffffff1673ffffffffffffffffffffffffffffffffffffffff16815260200190815260200160002060008473ffffffffffffffffffffffffffffffffffffffff1673ffffffffffffffffffffffffffffffffffffffff16815260200190815260200160002060006101000a81548160ff0219169083151502179055508173ffffffffffffffffffffffffffffffffffffffff168373ffffffffffffffffffffffffffffffffffffffff167f17307eab39ab6107e8899845ad3d59bd9653f200f220920489ca2b5937696c3183604051610fb29190612107565b60405180910390a3505050565b600073ffffffffffffffffffffffffffffffffffffffff168473ffffffffffffffffffffffffffffffffffffffff16141561102f576040517f08c379a0000000000000000000000000000000000000000000000000000000008152600401611026906121c4565b60405180910390fd5b6000611039610907565b905061105981878761104a88611430565b61105388611430565b87611241565b600080600086815260200190815260200160002060008873ffffffffffffffffffffffffffffffffffffffff1673ffffffffffffffffffffffffffffffffffffffff168152602001908152602001600020549050838110156110f0576040517f08c379a00000000000000000000000000000000000000000000000000000000081526004016110e790612204565b60405180910390fd5b83810360008087815260200190815260200160002060008973ffffffffffffffffffffffffffffffffffffffff1673ffffffffffffffffffffffffffffffffffffffff168152602001908152602001600020819055508360008087815260200190815260200160002060008873ffffffffffffffffffffffffffffffffffffffff1673ffffffffffffffffffffffffffffffffffffffff16815260200190815260200160002060008282546111a59190612427565b925050819055508573ffffffffffffffffffffffffffffffffffffffff168773ffffffffffffffffffffffffffffffffffffffff168373ffffffffffffffffffffffffffffffffffffffff167fc3d58168c5ae7397731d063d5bbf3d657854427343f4c083240f7aacaa2d0f6288886040516112229291906122bf565b60405180910390a46112388288888888886114aa565b50505050505050565b505050505050565b6112688473ffffffffffffffffffffffffffffffffffffffff166116ba565b15611428578373ffffffffffffffffffffffffffffffffffffffff1663bc197c8187878686866040518663ffffffff1660e01b81526004016112ae959493929190611fec565b602060405180830381600087803b1580156112c857600080fd5b505af19250505080156112f957506040513d601f19601f820116820180604052508101906112f69190611bbd565b60015b61139f57611305612760565b806308c379a01415611362575061131a612b70565b806113255750611364565b806040517f08c379a00000000000000000000000000000000000000000000000000000000081526004016113599190612122565b60405180910390fd5b505b6040517f08c379a000000000000000000000000000000000000000000000000000000000815260040161139690612144565b60405180910390fd5b63bc197c8160e01b7bffffffffffffffffffffffffffffffffffffffffffffffffffffffff1916817bffffffffffffffffffffffffffffffffffffffffffffffffffffffff191614611426576040517f08c379a000000000000000000000000000000000000000000000000000000000815260040161141d90612164565b60405180910390fd5b505b505050505050565b60606000600167ffffffffffffffff81111561144f5761144e612731565b5b60405190808252806020026020018201604052801561147d5781602001602082028036833780820191505090505b509050828160008151811061149557611494612702565b5b60200260200101818152505080915050919050565b6114c98473ffffffffffffffffffffffffffffffffffffffff166116ba565b15611689578373ffffffffffffffffffffffffffffffffffffffff1663f23a6e6187878686866040518663ffffffff1660e01b815260040161150f959493929190612054565b602060405180830381600087803b15801561152957600080fd5b505af192505050801561155a57506040513d601f19601f820116820180604052508101906115579190611bbd565b60015b61160057611566612760565b806308c379a014156115c3575061157b612b70565b8061158657506115c5565b806040517f08c379a00000000000000000000000000000000000000000000000000000000081526004016115ba9190612122565b60405180910390fd5b505b6040517f08c379a00000000000000000000000000000000000000000000000000000000081526004016115f790612144565b60405180910390fd5b63f23a6e6160e01b7bffffffffffffffffffffffffffffffffffffffffffffffffffffffff1916817bffffffffffffffffffffffffffffffffffffffffffffffffffffffff191614611687576040517f08c379a000000000000000000000000000000000000000000000000000000000815260040161167e90612164565b60405180910390fd5b505b505050505050565b60008151905060006a636f6e736f6c652e6c6f679050602083016000808483855afa5050505050565b6000808273ffffffffffffffffffffffffffffffffffffffff163b119050919050565b60006116f06116eb8461230d565b6122e8565b9050808382526020820190508285602086028201111561171357611712612787565b5b60005b85811015611743578161172988826117ff565b845260208401935060208301925050600181019050611716565b5050509392505050565b600061176061175b84612339565b6122e8565b9050808382526020820190508285602086028201111561178357611782612787565b5b60005b858110156117b3578161179988826118dd565b845260208401935060208301925050600181019050611786565b5050509392505050565b60006117d06117cb84612365565b6122e8565b9050828152602081018484840111156117ec576117eb61278c565b5b6117f7848285612556565b509392505050565b60008135905061180e81612c06565b92915050565b600082601f83011261182957611828612782565b5b81356118398482602086016116dd565b91505092915050565b600082601f83011261185757611856612782565b5b813561186784826020860161174d565b91505092915050565b60008135905061187f81612c1d565b92915050565b60008135905061189481612c34565b92915050565b6000815190506118a981612c34565b92915050565b600082601f8301126118c4576118c3612782565b5b81356118d48482602086016117bd565b91505092915050565b6000813590506118ec81612c4b565b92915050565b6000806040838503121561190957611908612796565b5b6000611917858286016117ff565b9250506020611928858286016117ff565b9150509250929050565b600080600080600060a0868803121561194e5761194d612796565b5b600061195c888289016117ff565b955050602061196d888289016117ff565b945050604086013567ffffffffffffffff81111561198e5761198d612791565b5b61199a88828901611842565b935050606086013567ffffffffffffffff8111156119bb576119ba612791565b5b6119c788828901611842565b925050608086013567ffffffffffffffff8111156119e8576119e7612791565b5b6119f4888289016118af565b9150509295509295909350565b600080600080600060a08688031215611a1d57611a1c612796565b5b6000611a2b888289016117ff565b9550506020611a3c888289016117ff565b9450506040611a4d888289016118dd565b9350506060611a5e888289016118dd565b925050608086013567ffffffffffffffff811115611a7f57611a7e612791565b5b611a8b888289016118af565b9150509295509295909350565b60008060408385031215611aaf57611aae612796565b5b6000611abd858286016117ff565b9250506020611ace85828601611870565b9150509250929050565b60008060408385031215611aef57611aee612796565b5b6000611afd858286016117ff565b9250506020611b0e858286016118dd565b9150509250929050565b60008060408385031215611b2f57611b2e612796565b5b600083013567ffffffffffffffff811115611b4d57611b4c612791565b5b611b5985828601611814565b925050602083013567ffffffffffffffff811115611b7a57611b79612791565b5b611b8685828601611842565b9150509250929050565b600060208284031215611ba657611ba5612796565b5b6000611bb484828501611885565b91505092915050565b600060208284031215611bd357611bd2612796565b5b6000611be18482850161189a565b91505092915050565b600060208284031215611c0057611bff612796565b5b6000611c0e848285016118dd565b91505092915050565b6000611c238383611f94565b60208301905092915050565b611c38816124e2565b82525050565b6000611c49826123bb565b611c5381856123e9565b9350611c5e83612396565b8060005b83811015611c8f578151611c768882611c17565b9750611c81836123dc565b925050600181019050611c62565b5085935050505092915050565b611ca5816124f4565b82525050565b6000611cb6826123c6565b611cc081856123fa565b9350611cd0818560208601612565565b611cd98161279b565b840191505092915050565b6000611cef826123d1565b611cf9818561240b565b9350611d09818560208601612565565b611d128161279b565b840191505092915050565b6000611d28826123d1565b611d32818561241c565b9350611d42818560208601612565565b80840191505092915050565b60008154611d5b81612598565b611d65818661241c565b94506001821660008114611d805760018114611d9157611dc4565b60ff19831686528186019350611dc4565b611d9a856123a6565b60005b83811015611dbc57815481890152600182019150602081019050611d9d565b838801955050505b50505092915050565b6000611dda60348361240b565b9150611de5826127b9565b604082019050919050565b6000611dfd60288361240b565b9150611e0882612808565b604082019050919050565b6000611e20602b8361240b565b9150611e2b82612857565b604082019050919050565b6000611e4360298361240b565b9150611e4e826128a6565b604082019050919050565b6000611e6660258361240b565b9150611e71826128f5565b604082019050919050565b6000611e8960328361240b565b9150611e9482612944565b604082019050919050565b6000611eac602a8361240b565b9150611eb782612993565b604082019050919050565b6000611ecf60058361241c565b9150611eda826129e2565b600582019050919050565b6000611ef260298361240b565b9150611efd82612a0b565b604082019050919050565b6000611f1560298361240b565b9150611f2082612a5a565b604082019050919050565b6000611f3860288361240b565b9150611f4382612aa9565b604082019050919050565b6000611f5b60218361240b565b9150611f6682612af8565b604082019050919050565b6000611f7e60018361241c565b9150611f8982612b47565b600182019050919050565b611f9d8161254c565b82525050565b611fac8161254c565b82525050565b6000611fbe8285611d4e565b9150611fc982611f71565b9150611fd58284611d1d565b9150611fe082611ec2565b91508190509392505050565b600060a0820190506120016000830188611c2f565b61200e6020830187611c2f565b81810360408301526120208186611c3e565b905081810360608301526120348185611c3e565b905081810360808301526120488184611cab565b90509695505050505050565b600060a0820190506120696000830188611c2f565b6120766020830187611c2f565b6120836040830186611fa3565b6120906060830185611fa3565b81810360808301526120a28184611cab565b90509695505050505050565b600060208201905081810360008301526120c88184611c3e565b905092915050565b600060408201905081810360008301526120ea8185611c3e565b905081810360208301526120fe8184611c3e565b90509392505050565b600060208201905061211c6000830184611c9c565b92915050565b6000602082019050818103600083015261213c8184611ce4565b905092915050565b6000602082019050818103600083015261215d81611dcd565b9050919050565b6000602082019050818103600083015261217d81611df0565b9050919050565b6000602082019050818103600083015261219d81611e13565b9050919050565b600060208201905081810360008301526121bd81611e36565b9050919050565b600060208201905081810360008301526121dd81611e59565b9050919050565b600060208201905081810360008301526121fd81611e7c565b9050919050565b6000602082019050818103600083015261221d81611e9f565b9050919050565b6000602082019050818103600083015261223d81611ee5565b9050919050565b6000602082019050818103600083015261225d81611f08565b9050919050565b6000602082019050818103600083015261227d81611f2b565b9050919050565b6000602082019050818103600083015261229d81611f4e565b9050919050565b60006020820190506122b96000830184611fa3565b92915050565b60006040820190506122d46000830185611fa3565b6122e16020830184611fa3565b9392505050565b60006122f2612303565b90506122fe82826125ca565b919050565b6000604051905090565b600067ffffffffffffffff82111561232857612327612731565b5b602082029050602081019050919050565b600067ffffffffffffffff82111561235457612353612731565b5b602082029050602081019050919050565b600067ffffffffffffffff8211156123805761237f612731565b5b6123898261279b565b9050602081019050919050565b6000819050602082019050919050565b60008190508160005260206000209050919050565b600081519050919050565b600081519050919050565b600081519050919050565b6000602082019050919050565b600082825260208201905092915050565b600082825260208201905092915050565b600082825260208201905092915050565b600081905092915050565b60006124328261254c565b915061243d8361254c565b9250827fffffffffffffffffffffffffffffffffffffffffffffffffffffffffffffffff0382111561247257612471612675565b5b828201905092915050565b60006124888261254c565b91506124938361254c565b9250826124a3576124a26126a4565b5b828204905092915050565b60006124b98261254c565b91506124c48361254c565b9250828210156124d7576124d6612675565b5b828203905092915050565b60006124ed8261252c565b9050919050565b60008115159050919050565b60007fffffffff0000000000000000000000000000000000000000000000000000000082169050919050565b600073ffffffffffffffffffffffffffffffffffffffff82169050919050565b6000819050919050565b82818337600083830152505050565b60005b83811015612583578082015181840152602081019050612568565b83811115612592576000848401525b50505050565b600060028204905060018216806125b057607f821691505b602082108114156125c4576125c36126d3565b5b50919050565b6125d38261279b565b810181811067ffffffffffffffff821117156125f2576125f1612731565b5b80604052505050565b60006126068261254c565b91507fffffffffffffffffffffffffffffffffffffffffffffffffffffffffffffffff82141561263957612638612675565b5b600182019050919050565b600061264f8261254c565b915061265a8361254c565b92508261266a576126696126a4565b5b828206905092915050565b7f4e487b7100000000000000000000000000000000000000000000000000000000600052601160045260246000fd5b7f4e487b7100000000000000000000000000000000000000000000000000000000600052601260045260246000fd5b7f4e487b7100000000000000000000000000000000000000000000000000000000600052602260045260246000fd5b7f4e487b7100000000000000000000000000000000000000000000000000000000600052603260045260246000fd5b7f4e487b7100000000000000000000000000000000000000000000000000000000600052604160045260246000fd5b600060033d111561277f5760046000803e61277c6000516127ac565b90505b90565b600080fd5b600080fd5b600080fd5b600080fd5b600080fd5b6000601f19601f8301169050919050565b60008160e01c9050919050565b7f455243313135353a207472616e7366657220746f206e6f6e204552433131353560008201527f526563656976657220696d706c656d656e746572000000000000000000000000602082015250565b7f455243313135353a204552433131353552656365697665722072656a6563746560008201527f6420746f6b656e73000000000000000000000000000000000000000000000000602082015250565b7f455243313135353a2062616c616e636520717565727920666f7220746865207a60008201527f65726f2061646472657373000000000000000000000000000000000000000000602082015250565b7f455243313135353a2063616c6c6572206973206e6f74206f776e6572206e6f7260008201527f20617070726f7665640000000000000000000000000000000000000000000000602082015250565b7f455243313135353a207472616e7366657220746f20746865207a65726f20616460008201527f6472657373000000000000000000000000000000000000000000000000000000602082015250565b7f455243313135353a207472616e736665722063616c6c6572206973206e6f742060008201527f6f776e6572206e6f7220617070726f7665640000000000000000000000000000602082015250565b7f455243313135353a20696e73756666696369656e742062616c616e636520666f60008201527f72207472616e7366657200000000000000000000000000000000000000000000602082015250565b7f2e6a736f6e000000000000000000000000000000000000000000000000000000600082015250565b7f455243313135353a2073657474696e6720617070726f76616c2073746174757360008201527f20666f722073656c660000000000000000000000000000000000000000000000602082015250565b7f455243313135353a206163636f756e747320616e6420696473206c656e67746860008201527f206d69736d617463680000000000000000000000000000000000000000000000602082015250565b7f455243313135353a2069647320616e6420616d6f756e7473206c656e6774682060008201527f6d69736d61746368000000000000000000000000000000000000000000000000602082015250565b7f455243313135353a206d696e7420746f20746865207a65726f2061646472657360008201527f7300000000000000000000000000000000000000000000000000000000000000602082015250565b7f2f00000000000000000000000000000000000000000000000000000000000000600082015250565b600060443d1015612b8057612c03565b612b88612303565b60043d036004823e80513d602482011167ffffffffffffffff82111715612bb0575050612c03565b808201805167ffffffffffffffff811115612bce5750505050612c03565b80602083010160043d038501811115612beb575050505050612c03565b612bfa826020018501866125ca565b82955050505050505b90565b612c0f816124e2565b8114612c1a57600080fd5b50565b612c26816124f4565b8114612c3157600080fd5b50565b612c3d81612500565b8114612c4857600080fd5b50565b612c548161254c565b8114612c5f57600080fd5b5056fea2646970667358221220a749e5254e1a13eef6e1466cb4c7b2c7c060d01e918ec3c0c626bbf680cbe87464736f6c63430008070033",
  "linkReferences": {},
  "deployedLinkReferences": {}
}